{"abi":[{"type":"constructor","inputs":[{"name":"_l1Storage","type":"address","internalType":"address"}],"stateMutability":"nonpayable"},{"type":"function","name":"retrieveL1AddressToMapping","inputs":[{"name":"variableStorageSlot","type":"uint256","internalType":"uint256"},{"name":"_mappingAddress","type":"address","internalType":"address"}],"outputs":[{"name":"","type":"uint256","internalType":"uint256"}],"stateMutability":"view"},{"type":"function","name":"retrieveL1AddressToNestMapping","inputs":[{"name":"variableStorageSlot","type":"uint256","internalType":"uint256"},{"name":"_mappingAddress","type":"address","internalType":"address"},{"name":"_mappingUintIndex","type":"uint256","internalType":"uint256"}],"outputs":[{"name":"","type":"uint256","internalType":"uint256"}],"stateMutability":"view"}],"bytecode":{"object":"0x60c060405261010160805234801561001657600080fd5b5060405161055638038061055683398101604081905261003591610046565b6001600160a01b031660a052610076565b60006020828403121561005857600080fd5b81516001600160a01b038116811461006f57600080fd5b9392505050565b60805160a0516104af6100a76000396000818160a4015261028d015260008181607a015261026301526104af6000f3fe608060405234801561001057600080fd5b50600436106100365760003560e01c80630b525fb61461003b5780636bfafaa614610060575b600080fd5b61004e6100493660046103cf565b610073565b60405190815260200160405180910390f35b61004e61006e3660046103fb565b6101f9565b60008060007f00000000000000000000000000000000000000000000000000000000000000006001600160a01b03167f0000000000000000000000000000000000000000000000000000000000000000856001600160a01b0316876040516020016100e8929190918252602082015260400190565b60408051601f1981840301815290829052805160209182012061012b939290910160609290921b6bffffffffffffffffffffffff19168252601482015260340190565b60408051601f198184030181529082905261014591610431565b600060405180830381855afa9150503d8060008114610180576040519150601f19603f3d011682016040523d82523d6000602084013e610185565b606091505b5091509150816101dc5760405162461bcd60e51b815260206004820152601d60248201527f4572726f722065787472616374696e67206d617070696e67206461746100000060448201526064015b60405180910390fd5b808060200190518101906101f09190610460565b95945050505050565b604080516001600160a01b0384166020820152908101849052600090819060600160408051601f19818403018152828252805160209182012090830186905290820181905291506000906060016040516020818303038152906040528051906020012090506000807f00000000000000000000000000000000000000000000000000000000000000006001600160a01b03167f0000000000000000000000000000000000000000000000000000000000000000846040516020016102db92919060609290921b6bffffffffffffffffffffffff19168252601482015260340190565b60408051601f19818403018152908290526102f591610431565b600060405180830381855afa9150503d8060008114610330576040519150601f19603f3d011682016040523d82523d6000602084013e610335565b606091505b5091509150816103935760405162461bcd60e51b8152602060048201526024808201527f4572726f722065787472616374696e67206e6573746564206d617070696e67206044820152636461746160e01b60648201526084016101d3565b808060200190518101906103a79190610460565b98975050505050505050565b80356001600160a01b03811681146103ca57600080fd5b919050565b600080604083850312156103e257600080fd5b823591506103f2602084016103b3565b90509250929050565b60008060006060848603121561041057600080fd5b83359250610420602085016103b3565b929592945050506040919091013590565b6000825160005b818110156104525760208186018101518583015201610438565b506000920191825250919050565b60006020828403121561047257600080fd5b505191905056fea26469706673582212209dfdcb5b098701c37c7a76ba32a0133892f84f01e21ac77a2af4a8de2686938f64736f6c634300081c0033","linkReferences":{}},"methodIdentifiers":{"retrieveL1AddressToMapping(uint256,address)":"0b525fb6","retrieveL1AddressToNestMapping(uint256,address,uint256)":"6bfafaa6"},"id":42}