{"abi":[{"type":"constructor","inputs":[{"name":"_l1sloadContractAddress","type":"address","internalType":"address"}],"stateMutability":"nonpayable"},{"type":"function","name":"retrieveL1AddressToMapping","inputs":[{"name":"variableStorageSlot","type":"uint256","internalType":"uint256"},{"name":"_mappingAddress","type":"address","internalType":"address"}],"outputs":[{"name":"","type":"uint256","internalType":"uint256"}],"stateMutability":"view"},{"type":"function","name":"retrieveL1AddressToNestMapping","inputs":[{"name":"variableStorageSlot","type":"uint256","internalType":"uint256"},{"name":"_mappingAddress","type":"address","internalType":"address"}],"outputs":[{"name":"","type":"uint256","internalType":"uint256"}],"stateMutability":"view"}],"bytecode":{"object":"0x60c060405261010160805234801561001657600080fd5b5060405161051438038061051483398101604081905261003591610046565b6001600160a01b031660a052610076565b60006020828403121561005857600080fd5b81516001600160a01b038116811461006f57600080fd5b9392505050565b60805160a05161046d6100a76000396000818160a4015261028e015260008181607a0152610264015261046d6000f3fe608060405234801561001057600080fd5b50600436106100365760003560e01c80630b525fb61461003b578063e7006ecc14610060575b600080fd5b61004e6100493660046103b3565b610073565b60405190815260200160405180910390f35b61004e61006e3660046103b3565b6101f9565b60008060007f00000000000000000000000000000000000000000000000000000000000000006001600160a01b03167f0000000000000000000000000000000000000000000000000000000000000000856001600160a01b0316876040516020016100e8929190918252602082015260400190565b60408051601f1981840301815290829052805160209182012061012b939290910160609290921b6bffffffffffffffffffffffff19168252601482015260340190565b60408051601f1981840301815290829052610145916103ef565b600060405180830381855afa9150503d8060008114610180576040519150601f19603f3d011682016040523d82523d6000602084013e610185565b606091505b5091509150816101dc5760405162461bcd60e51b815260206004820152601d60248201527f4572726f722065787472616374696e67206d617070696e67206461746100000060448201526064015b60405180910390fd5b808060200190518101906101f0919061041e565b95945050505050565b604080516001600160a01b0383166020820152908101839052600090819060600160408051601f1981840301815282825280516020918201206000918401829052918301829052909250906060016040516020818303038152906040528051906020012090506000807f00000000000000000000000000000000000000000000000000000000000000006001600160a01b03167f0000000000000000000000000000000000000000000000000000000000000000846040516020016102dc92919060609290921b6bffffffffffffffffffffffff19168252601482015260340190565b60408051601f19818403018152908290526102f6916103ef565b600060405180830381855afa9150503d8060008114610331576040519150601f19603f3d011682016040523d82523d6000602084013e610336565b606091505b5091509150816103945760405162461bcd60e51b8152602060048201526024808201527f4572726f722065787472616374696e67206e6573746564206d617070696e67206044820152636461746160e01b60648201526084016101d3565b808060200190518101906103a8919061041e565b979650505050505050565b600080604083850312156103c657600080fd5b8235915060208301356001600160a01b03811681146103e457600080fd5b809150509250929050565b6000825160005b8181101561041057602081860181015185830152016103f6565b506000920191825250919050565b60006020828403121561043057600080fd5b505191905056fea2646970667358221220f5e213ce2ddb89d18e3e08e1c049db4b5ea197fb9b0186160a281da7f82aea2764736f6c634300081c0033","linkReferences":{}},"methodIdentifiers":{"retrieveL1AddressToMapping(uint256,address)":"0b525fb6","retrieveL1AddressToNestMapping(uint256,address)":"e7006ecc"},"id":16}