{"abi":[{"type":"constructor","inputs":[],"stateMutability":"nonpayable"},{"type":"function","name":"approve","inputs":[{"name":"to","type":"address","internalType":"address"},{"name":"tokenId","type":"uint256","internalType":"uint256"}],"outputs":[],"stateMutability":"nonpayable"},{"type":"function","name":"balanceOf","inputs":[{"name":"owner","type":"address","internalType":"address"}],"outputs":[{"name":"","type":"uint256","internalType":"uint256"}],"stateMutability":"view"},{"type":"function","name":"getApproved","inputs":[{"name":"tokenId","type":"uint256","internalType":"uint256"}],"outputs":[{"name":"","type":"address","internalType":"address"}],"stateMutability":"view"},{"type":"function","name":"isApprovedForAll","inputs":[{"name":"owner","type":"address","internalType":"address"},{"name":"operator","type":"address","internalType":"address"}],"outputs":[{"name":"","type":"bool","internalType":"bool"}],"stateMutability":"view"},{"type":"function","name":"name","inputs":[],"outputs":[{"name":"","type":"string","internalType":"string"}],"stateMutability":"view"},{"type":"function","name":"ownerOf","inputs":[{"name":"tokenId","type":"uint256","internalType":"uint256"}],"outputs":[{"name":"","type":"address","internalType":"address"}],"stateMutability":"view"},{"type":"function","name":"safeMint","inputs":[{"name":"to","type":"address","internalType":"address"}],"outputs":[],"stateMutability":"nonpayable"},{"type":"function","name":"safeTransferFrom","inputs":[{"name":"from","type":"address","internalType":"address"},{"name":"to","type":"address","internalType":"address"},{"name":"tokenId","type":"uint256","internalType":"uint256"}],"outputs":[],"stateMutability":"nonpayable"},{"type":"function","name":"safeTransferFrom","inputs":[{"name":"from","type":"address","internalType":"address"},{"name":"to","type":"address","internalType":"address"},{"name":"tokenId","type":"uint256","internalType":"uint256"},{"name":"data","type":"bytes","internalType":"bytes"}],"outputs":[],"stateMutability":"nonpayable"},{"type":"function","name":"setApprovalForAll","inputs":[{"name":"operator","type":"address","internalType":"address"},{"name":"approved","type":"bool","internalType":"bool"}],"outputs":[],"stateMutability":"nonpayable"},{"type":"function","name":"supportsInterface","inputs":[{"name":"interfaceId","type":"bytes4","internalType":"bytes4"}],"outputs":[{"name":"","type":"bool","internalType":"bool"}],"stateMutability":"view"},{"type":"function","name":"symbol","inputs":[],"outputs":[{"name":"","type":"string","internalType":"string"}],"stateMutability":"view"},{"type":"function","name":"tokenByIndex","inputs":[{"name":"index","type":"uint256","internalType":"uint256"}],"outputs":[{"name":"","type":"uint256","internalType":"uint256"}],"stateMutability":"view"},{"type":"function","name":"tokenOfOwnerByIndex","inputs":[{"name":"owner","type":"address","internalType":"address"},{"name":"index","type":"uint256","internalType":"uint256"}],"outputs":[{"name":"","type":"uint256","internalType":"uint256"}],"stateMutability":"view"},{"type":"function","name":"tokenURI","inputs":[{"name":"tokenId","type":"uint256","internalType":"uint256"}],"outputs":[{"name":"","type":"string","internalType":"string"}],"stateMutability":"view"},{"type":"function","name":"totalSupply","inputs":[],"outputs":[{"name":"","type":"uint256","internalType":"uint256"}],"stateMutability":"view"},{"type":"function","name":"transferFrom","inputs":[{"name":"from","type":"address","internalType":"address"},{"name":"to","type":"address","internalType":"address"},{"name":"tokenId","type":"uint256","internalType":"uint256"}],"outputs":[],"stateMutability":"nonpayable"},{"type":"event","name":"Approval","inputs":[{"name":"owner","type":"address","indexed":true,"internalType":"address"},{"name":"approved","type":"address","indexed":true,"internalType":"address"},{"name":"tokenId","type":"uint256","indexed":true,"internalType":"uint256"}],"anonymous":false},{"type":"event","name":"ApprovalForAll","inputs":[{"name":"owner","type":"address","indexed":true,"internalType":"address"},{"name":"operator","type":"address","indexed":true,"internalType":"address"},{"name":"approved","type":"bool","indexed":false,"internalType":"bool"}],"anonymous":false},{"type":"event","name":"Transfer","inputs":[{"name":"from","type":"address","indexed":true,"internalType":"address"},{"name":"to","type":"address","indexed":true,"internalType":"address"},{"name":"tokenId","type":"uint256","indexed":true,"internalType":"uint256"}],"anonymous":false},{"type":"error","name":"ERC721EnumerableForbiddenBatchMint","inputs":[]},{"type":"error","name":"ERC721IncorrectOwner","inputs":[{"name":"sender","type":"address","internalType":"address"},{"name":"tokenId","type":"uint256","internalType":"uint256"},{"name":"owner","type":"address","internalType":"address"}]},{"type":"error","name":"ERC721InsufficientApproval","inputs":[{"name":"operator","type":"address","internalType":"address"},{"name":"tokenId","type":"uint256","internalType":"uint256"}]},{"type":"error","name":"ERC721InvalidApprover","inputs":[{"name":"approver","type":"address","internalType":"address"}]},{"type":"error","name":"ERC721InvalidOperator","inputs":[{"name":"operator","type":"address","internalType":"address"}]},{"type":"error","name":"ERC721InvalidOwner","inputs":[{"name":"owner","type":"address","internalType":"address"}]},{"type":"error","name":"ERC721InvalidReceiver","inputs":[{"name":"receiver","type":"address","internalType":"address"}]},{"type":"error","name":"ERC721InvalidSender","inputs":[{"name":"sender","type":"address","internalType":"address"}]},{"type":"error","name":"ERC721NonexistentToken","inputs":[{"name":"tokenId","type":"uint256","internalType":"uint256"}]},{"type":"error","name":"ERC721OutOfBoundsIndex","inputs":[{"name":"owner","type":"address","internalType":"address"},{"name":"index","type":"uint256","internalType":"uint256"}]}],"bytecode":{"object":"0x608060405234801561001057600080fd5b506040518060400160405280600a81526020016926b7b7a232b733a330b760b11b8152506040518060400160405280600381526020016226a22360e91b815250816000908161005f9190610113565b50600161006c8282610113565b5050506101d1565b634e487b7160e01b600052604160045260246000fd5b600181811c9082168061009e57607f821691505b6020821081036100be57634e487b7160e01b600052602260045260246000fd5b50919050565b601f82111561010e57806000526020600020601f840160051c810160208510156100eb5750805b601f840160051c820191505b8181101561010b57600081556001016100f7565b50505b505050565b81516001600160401b0381111561012c5761012c610074565b6101408161013a845461008a565b846100c4565b6020601f821160018114610174576000831561015c5750848201515b600019600385901b1c1916600184901b17845561010b565b600084815260208120601f198516915b828110156101a45787850151825560209485019460019092019101610184565b50848210156101c25786840151600019600387901b60f8161c191681555b50505050600190811b01905550565b611477806101e06000396000f3fe608060405234801561001057600080fd5b506004361061010b5760003560e01c806342842e0e116100a257806395d89b411161007157806395d89b4114610224578063a22cb4651461022c578063b88d4fde1461023f578063c87b56dd14610252578063e985e9c51461026557600080fd5b806342842e0e146101d85780634f6ccce7146101eb5780636352211e146101fe57806370a082311461021157600080fd5b806318160ddd116100de57806318160ddd1461018d57806323b872dd1461019f5780632f745c59146101b257806340d097c3146101c557600080fd5b806301ffc9a71461011057806306fdde0314610138578063081812fc1461014d578063095ea7b314610178575b600080fd5b61012361011e36600461103b565b610278565b60405190151581526020015b60405180910390f35b610140610289565b60405161012f91906110a8565b61016061015b3660046110bb565b61031b565b6040516001600160a01b03909116815260200161012f565b61018b6101863660046110f0565b610344565b005b6008545b60405190815260200161012f565b61018b6101ad36600461111a565b610353565b6101916101c03660046110f0565b6103e3565b61018b6101d3366004611157565b610448565b61018b6101e636600461111a565b6104bf565b6101916101f93660046110bb565b6104df565b61016061020c3660046110bb565b610538565b61019161021f366004611157565b610543565b61014061058b565b61018b61023a366004611172565b61059a565b61018b61024d3660046111c4565b6105a5565b6101406102603660046110bb565b6105bd565b6101236102733660046112a8565b610625565b600061028382610653565b92915050565b606060008054610298906112db565b80601f01602080910402602001604051908101604052809291908181526020018280546102c4906112db565b80156103115780601f106102e657610100808354040283529160200191610311565b820191906000526020600020905b8154815290600101906020018083116102f457829003601f168201915b5050505050905090565b600061032682610678565b506000828152600460205260409020546001600160a01b0316610283565b61034f8282336106b1565b5050565b6001600160a01b03821661038257604051633250574960e11b8152600060048201526024015b60405180910390fd5b600061038f8383336106be565b9050836001600160a01b0316816001600160a01b0316146103dd576040516364283d7b60e01b81526001600160a01b0380861660048301526024820184905282166044820152606401610379565b50505050565b60006103ee83610543565b821061041f5760405163295f44f760e21b81526001600160a01b038416600482015260248101839052604401610379565b506001600160a01b03919091166000908152600660209081526040808320938352929052205490565b61045181610543565b1561049e5760405162461bcd60e51b815260206004820181905260248201527f546869732077616c6c657420616c7265616479206f776e7320616e204e46542e6044820152606401610379565b600a8054600091826104af8361132b565b91905055905061034f82826106d3565b6104da838383604051806020016040528060008152506105a5565b505050565b60006104ea60085490565b82106105135760405163295f44f760e21b81526000600482015260248101839052604401610379565b6008828154811061052657610526611344565b90600052602060002001549050919050565b600061028382610678565b60006001600160a01b03821661056f576040516322718ad960e21b815260006004820152602401610379565b506001600160a01b031660009081526003602052604090205490565b606060018054610298906112db565b61034f3383836106ed565b6105b0848484610353565b6103dd338585858561078c565b60606105c882610678565b5060006105d36108b7565b905060008151116105f3576040518060200160405280600081525061061e565b806105fd846108d7565b60405160200161060e92919061135a565b6040516020818303038152906040525b9392505050565b6001600160a01b03918216600090815260056020908152604080832093909416825291909152205460ff1690565b60006001600160e01b0319821663780e9d6360e01b148061028357506102838261096a565b6000818152600260205260408120546001600160a01b03168061028357604051637e27328960e01b815260048101849052602401610379565b6104da83838360016109ba565b60006106cb848484610ac0565b949350505050565b61034f828260405180602001604052806000815250610b8d565b6001600160a01b03821661071f57604051630b61174360e31b81526001600160a01b0383166004820152602401610379565b6001600160a01b03838116600081815260056020908152604080832094871680845294825291829020805460ff191686151590811790915591519182527f17307eab39ab6107e8899845ad3d59bd9653f200f220920489ca2b5937696c31910160405180910390a3505050565b6001600160a01b0383163b156108b057604051630a85bd0160e11b81526001600160a01b0384169063150b7a02906107ce908890889087908790600401611389565b6020604051808303816000875af1925050508015610809575060408051601f3d908101601f19168201909252610806918101906113c6565b60015b610872573d808015610837576040519150601f19603f3d011682016040523d82523d6000602084013e61083c565b606091505b50805160000361086a57604051633250574960e11b81526001600160a01b0385166004820152602401610379565b805181602001fd5b6001600160e01b03198116630a85bd0160e11b146108ae57604051633250574960e11b81526001600160a01b0385166004820152602401610379565b505b5050505050565b606060405180606001604052806035815260200161140d60359139905090565b606060006108e483610ba5565b600101905060008167ffffffffffffffff811115610904576109046111ae565b6040519080825280601f01601f19166020018201604052801561092e576020820181803683370190505b5090508181016020015b600019016f181899199a1a9b1b9c1cb0b131b232b360811b600a86061a8153600a850494508461093857509392505050565b60006001600160e01b031982166380ac58cd60e01b148061099b57506001600160e01b03198216635b5e139f60e01b145b8061028357506301ffc9a760e01b6001600160e01b0319831614610283565b80806109ce57506001600160a01b03821615155b15610a905760006109de84610678565b90506001600160a01b03831615801590610a0a5750826001600160a01b0316816001600160a01b031614155b8015610a1d5750610a1b8184610625565b155b15610a465760405163a9fbf51f60e01b81526001600160a01b0384166004820152602401610379565b8115610a8e5783856001600160a01b0316826001600160a01b03167f8c5be1e5ebec7d5bd14f71427d1e84f3dd0314c0f7b2291e5b200ac8c7c3b92560405160405180910390a45b505b5050600090815260046020526040902080546001600160a01b0319166001600160a01b0392909216919091179055565b600080610ace858585610c7d565b90506001600160a01b038116610b2b57610b2684600880546000838152600960205260408120829055600182018355919091527ff3f7a9fe364faab93b216da50a3214154f22a0a2b415b23a84c8169e8b636ee30155565b610b4e565b846001600160a01b0316816001600160a01b031614610b4e57610b4e8185610d76565b6001600160a01b038516610b6a57610b6584610df7565b6106cb565b846001600160a01b0316816001600160a01b0316146106cb576106cb8585610ea6565b610b978383610ef6565b6104da33600085858561078c565b60008072184f03e93ff9f4daa797ed6e38ed64bf6a1f0160401b8310610be45772184f03e93ff9f4daa797ed6e38ed64bf6a1f0160401b830492506040015b6d04ee2d6d415b85acef81000000008310610c10576d04ee2d6d415b85acef8100000000830492506020015b662386f26fc100008310610c2e57662386f26fc10000830492506010015b6305f5e1008310610c46576305f5e100830492506008015b6127108310610c5a57612710830492506004015b60648310610c6c576064830492506002015b600a83106102835760010192915050565b6000828152600260205260408120546001600160a01b0390811690831615610caa57610caa818486610f5b565b6001600160a01b03811615610ce857610cc76000856000806109ba565b6001600160a01b038116600090815260036020526040902080546000190190555b6001600160a01b03851615610d17576001600160a01b0385166000908152600360205260409020805460010190555b60008481526002602052604080822080546001600160a01b0319166001600160a01b0389811691821790925591518793918516917fddf252ad1be2c89b69c2b068fc378daa952ba7f163c4a11628f55a4df523b3ef91a4949350505050565b6000610d8183610543565b6000838152600760209081526040808320546001600160a01b0388168452600690925290912091925090818314610dd857600083815260208281526040808320548584528184208190558352600790915290208290555b6000938452600760209081526040808620869055938552525081205550565b600854600090610e09906001906113e3565b60008381526009602052604081205460088054939450909284908110610e3157610e31611344565b906000526020600020015490508060088381548110610e5257610e52611344565b6000918252602080832090910192909255828152600990915260408082208490558582528120556008805480610e8a57610e8a6113f6565b6001900381819060005260206000200160009055905550505050565b60006001610eb384610543565b610ebd91906113e3565b6001600160a01b039093166000908152600660209081526040808320868452825280832085905593825260079052919091209190915550565b6001600160a01b038216610f2057604051633250574960e11b815260006004820152602401610379565b6000610f2e838360006106be565b90506001600160a01b038116156104da576040516339e3563760e11b815260006004820152602401610379565b610f66838383610fbf565b6104da576001600160a01b038316610f9457604051637e27328960e01b815260048101829052602401610379565b60405163177e802f60e01b81526001600160a01b038316600482015260248101829052604401610379565b60006001600160a01b038316158015906106cb5750826001600160a01b0316846001600160a01b03161480610ff95750610ff98484610625565b806106cb5750506000908152600460205260409020546001600160a01b03908116911614919050565b6001600160e01b03198116811461103857600080fd5b50565b60006020828403121561104d57600080fd5b813561061e81611022565b60005b8381101561107357818101518382015260200161105b565b50506000910152565b60008151808452611094816020860160208601611058565b601f01601f19169290920160200192915050565b60208152600061061e602083018461107c565b6000602082840312156110cd57600080fd5b5035919050565b80356001600160a01b03811681146110eb57600080fd5b919050565b6000806040838503121561110357600080fd5b61110c836110d4565b946020939093013593505050565b60008060006060848603121561112f57600080fd5b611138846110d4565b9250611146602085016110d4565b929592945050506040919091013590565b60006020828403121561116957600080fd5b61061e826110d4565b6000806040838503121561118557600080fd5b61118e836110d4565b9150602083013580151581146111a357600080fd5b809150509250929050565b634e487b7160e01b600052604160045260246000fd5b600080600080608085870312156111da57600080fd5b6111e3856110d4565b93506111f1602086016110d4565b925060408501359150606085013567ffffffffffffffff81111561121457600080fd5b8501601f8101871361122557600080fd5b803567ffffffffffffffff81111561123f5761123f6111ae565b604051601f8201601f19908116603f0116810167ffffffffffffffff8111828210171561126e5761126e6111ae565b60405281815282820160200189101561128657600080fd5b8160208401602083013760006020838301015280935050505092959194509250565b600080604083850312156112bb57600080fd5b6112c4836110d4565b91506112d2602084016110d4565b90509250929050565b600181811c908216806112ef57607f821691505b60208210810361130f57634e487b7160e01b600052602260045260246000fd5b50919050565b634e487b7160e01b600052601160045260246000fd5b60006001820161133d5761133d611315565b5060010190565b634e487b7160e01b600052603260045260246000fd5b6000835161136c818460208801611058565b835190830190611380818360208801611058565b01949350505050565b6001600160a01b03858116825284166020820152604081018390526080606082018190526000906113bc9083018461107c565b9695505050505050565b6000602082840312156113d857600080fd5b815161061e81611022565b8181038181111561028357610283611315565b634e487b7160e01b600052603160045260246000fdfe697066733a2f2f516d504d6334746342734d714c5275435174506d506538346270536a7243334b793774334a577548585942346153a2646970667358221220696c7025ee5eac5dcc3f5a62dfcec7f7a28246ed7ffaffe03d7f6d17df25322764736f6c634300081c0033","linkReferences":{}},"methodIdentifiers":{"approve(address,uint256)":"095ea7b3","balanceOf(address)":"70a08231","getApproved(uint256)":"081812fc","isApprovedForAll(address,address)":"e985e9c5","name()":"06fdde03","ownerOf(uint256)":"6352211e","safeMint(address)":"40d097c3","safeTransferFrom(address,address,uint256)":"42842e0e","safeTransferFrom(address,address,uint256,bytes)":"b88d4fde","setApprovalForAll(address,bool)":"a22cb465","supportsInterface(bytes4)":"01ffc9a7","symbol()":"95d89b41","tokenByIndex(uint256)":"4f6ccce7","tokenOfOwnerByIndex(address,uint256)":"2f745c59","tokenURI(uint256)":"c87b56dd","totalSupply()":"18160ddd","transferFrom(address,address,uint256)":"23b872dd"},"id":17}