{"abi":[{"type":"constructor","inputs":[{"name":"_loadL1StorageAddress","type":"address","internalType":"address"}],"stateMutability":"nonpayable"},{"type":"function","name":"loadL1Storage","inputs":[],"outputs":[{"name":"","type":"address","internalType":"contract LoadL1Storage"}],"stateMutability":"view"},{"type":"function","name":"memberIDToVotes","inputs":[{"name":"","type":"uint8","internalType":"enum Vote.TeamMemberID"}],"outputs":[{"name":"","type":"uint256","internalType":"uint256"}],"stateMutability":"view"},{"type":"function","name":"tokenIDToVotedMemberID","inputs":[{"name":"","type":"uint256","internalType":"uint256"}],"outputs":[{"name":"","type":"uint8","internalType":"enum Vote.TeamMemberID"}],"stateMutability":"view"},{"type":"function","name":"vote","inputs":[{"name":"_teamMemberId","type":"uint8","internalType":"enum Vote.TeamMemberID"}],"outputs":[],"stateMutability":"nonpayable"},{"type":"event","name":"VoteCast","inputs":[{"name":"voter","type":"address","indexed":false,"internalType":"address"},{"name":"teamMemberId","type":"uint8","indexed":false,"internalType":"enum Vote.TeamMemberID"}],"anonymous":false}],"bytecode":{"object":"0x6080604052348015600f57600080fd5b5060405161053c38038061053c833981016040819052602c916050565b600080546001600160a01b0319166001600160a01b0392909216919091179055607e565b600060208284031215606157600080fd5b81516001600160a01b0381168114607757600080fd5b9392505050565b6104af8061008d6000396000f3fe608060405234801561001057600080fd5b506004361061004c5760003560e01c80633961f20014610051578063656eb7f41461008a578063b3f98adc146100b8578063d3a824bd146100cd575b600080fd5b61007461005f36600461038f565b60026020526000908152604090205460ff1681565b60405161008191906103e0565b60405180910390f35b6100aa6100983660046103f4565b60016020526000908152604090205481565b604051908152602001610081565b6100cb6100c63660046103f4565b6100f8565b005b6000546100e0906001600160a01b031681565b6040516001600160a01b039091168152602001610081565b6000806101043361028a565b91509150816001146101685760405162461bcd60e51b815260206004820152602260248201527f596f7520646f6e2774206861766520616e792062616c616e636520746f20766f604482015261746560f01b60648201526084015b60405180910390fd5b60008181526002602052604081205460ff16600581111561018b5761018b6103a8565b146101d15760405162461bcd60e51b8152602060048201526016602482015275165bdd481a185d9948185b1c9958591e481d9bdd195960521b604482015260640161015f565b6000818152600260205260409020805484919060ff191660018360058111156101fc576101fc6103a8565b021790555060016000846005811115610217576102176103a8565b6005811115610228576102286103a8565b815260200190815260200160002060008154809291906102479061041c565b91905055507fefffa0c001f10a86d936643c098510eba656ffab1d0c5165822b79d4c895e88f338460405161027d929190610443565b60405180910390a1505050565b600080546040516305a92fdb60e11b8152600360048201526001600160a01b03848116602483015283928392911690630b525fb690604401602060405180830381865afa1580156102df573d6000803e3d6000fd5b505050506040513d601f19601f820116820180604052508101906103039190610460565b600080546040516335fd7d5360e11b8152600660048201526001600160a01b0388811660248301526044820184905293945091921690636bfafaa690606401602060405180830381865afa15801561035f573d6000803e3d6000fd5b505050506040513d601f19601f820116820180604052508101906103839190610460565b91959194509092505050565b6000602082840312156103a157600080fd5b5035919050565b634e487b7160e01b600052602160045260246000fd5b600681106103dc57634e487b7160e01b600052602160045260246000fd5b9052565b602081016103ee82846103be565b92915050565b60006020828403121561040657600080fd5b81356006811061041557600080fd5b9392505050565b60006001820161043c57634e487b7160e01b600052601160045260246000fd5b5060010190565b6001600160a01b03831681526040810161041560208301846103be565b60006020828403121561047257600080fd5b505191905056fea26469706673582212203e27ffcb2026615bdf1f3951f5a1331cc1aed82f6aae4b2f4d54d7a12928284c64736f6c634300081c0033","linkReferences":{}},"methodIdentifiers":{"loadL1Storage()":"d3a824bd","memberIDToVotes(uint8)":"656eb7f4","tokenIDToVotedMemberID(uint256)":"3961f200","vote(uint8)":"b3f98adc"},"id":44}