{
  "abi": [
    {
      "type": "constructor",
      "inputs": [
        {
          "name": "_loadL1StorageAddress",
          "type": "address",
          "internalType": "address"
        }
      ],
      "stateMutability": "nonpayable"
    },
    {
      "type": "function",
      "name": "_loadDataFromL1",
      "inputs": [
        {
          "name": "_address",
          "type": "address",
          "internalType": "address"
        }
      ],
      "outputs": [
        {
          "name": "",
          "type": "uint256",
          "internalType": "uint256"
        }
      ],
      "stateMutability": "view"
    },
    {
      "type": "function",
      "name": "canVote",
      "inputs": [
        {
          "name": "_teamMemberId",
          "type": "uint8",
          "internalType": "enum Vote.TeamMemberID"
        }
      ],
      "outputs": [
        {
          "name": "",
          "type": "bool",
          "internalType": "bool"
        }
      ],
      "stateMutability": "nonpayable"
    },
    {
      "type": "function",
      "name": "loadL1Storage",
      "inputs": [],
      "outputs": [
        {
          "name": "",
          "type": "address",
          "internalType": "contract LoadL1Storage"
        }
      ],
      "stateMutability": "view"
    },
    {
      "type": "function",
      "name": "memberIDToVotes",
      "inputs": [
        {
          "name": "",
          "type": "uint8",
          "internalType": "enum Vote.TeamMemberID"
        }
      ],
      "outputs": [
        {
          "name": "",
          "type": "uint256",
          "internalType": "uint256"
        }
      ],
      "stateMutability": "view"
    },
    {
      "type": "function",
      "name": "tokenIDToVotedMemberID",
      "inputs": [
        {
          "name": "",
          "type": "uint256",
          "internalType": "uint256"
        }
      ],
      "outputs": [
        {
          "name": "",
          "type": "uint8",
          "internalType": "enum Vote.TeamMemberID"
        }
      ],
      "stateMutability": "view"
    },
    {
      "type": "function",
      "name": "vote",
      "inputs": [
        {
          "name": "_teamMemberId",
          "type": "uint8",
          "internalType": "enum Vote.TeamMemberID"
        }
      ],
      "outputs": [],
      "stateMutability": "nonpayable"
    },
    {
      "type": "event",
      "name": "VoteCast",
      "inputs": [
        {
          "name": "voter",
          "type": "address",
          "indexed": false,
          "internalType": "address"
        },
        {
          "name": "teamMemberId",
          "type": "uint8",
          "indexed": false,
          "internalType": "enum Vote.TeamMemberID"
        }
      ],
      "anonymous": false
    }
  ],
  "bytecode": {
    "object": "0x6080604052348015600f57600080fd5b506040516105ba3803806105ba833981016040819052602c916050565b600080546001600160a01b0319166001600160a01b0392909216919091179055607e565b600060208284031215606157600080fd5b81516001600160a01b0381168114607757600080fd5b9392505050565b61052d8061008d6000396000f3fe608060405234801561001057600080fd5b50600436106100625760003560e01c80633961f20014610067578063488a571c146100a0578063656eb7f4146100c3578063b3f98adc146100f1578063d3a824bd14610106578063edab90d014610131575b600080fd5b61008a6100753660046103e4565b60026020526000908152604090205460ff1681565b6040516100979190610435565b60405180910390f35b6100b36100ae366004610449565b610144565b6040519015158152602001610097565b6100e36100d1366004610449565b60016020526000908152604090205481565b604051908152602001610097565b6101046100ff366004610449565b6101bd565b005b600054610119906001600160a01b031681565b6040516001600160a01b039091168152602001610097565b6100e361013f366004610471565b610297565b60008061015033610297565b90506000808281526002602052604090205460ff166005811115610176576101766103fd565b036101b4576000818152600260205260409020805484919060ff191660018360058111156101a6576101a66103fd565b021790555060019392505050565b50600092915050565b6101c681610144565b6102105760405162461bcd60e51b8152602060048201526016602482015275165bdd481a185d9948185b1c9958591e481d9bdd195960521b60448201526064015b60405180910390fd5b60016000826005811115610226576102266103fd565b6005811115610237576102376103fd565b815260200190815260200160002060008154809291906102569061049a565b91905055507fefffa0c001f10a86d936643c098510eba656ffab1d0c5165822b79d4c895e88f338260405161028c9291906104c1565b60405180910390a150565b600080546040516305a92fdb60e11b8152600360048201526001600160a01b03848116602483015283921690630b525fb690604401602060405180830381865afa1580156102e9573d6000803e3d6000fd5b505050506040513d601f19601f8201168201806040525081019061030d91906104de565b90508060011461035f5760405162461bcd60e51b815260206004820152601a60248201527f596f7520646f6e2774206861766520616e792062616c616e63650000000000006044820152606401610207565b600080546040516335fd7d5360e11b8152600660048201526001600160a01b0386811660248301526044820184905290911690636bfafaa690606401602060405180830381865afa1580156103b8573d6000803e3d6000fd5b505050506040513d601f19601f820116820180604052508101906103dc91906104de565b949350505050565b6000602082840312156103f657600080fd5b5035919050565b634e487b7160e01b600052602160045260246000fd5b6006811061043157634e487b7160e01b600052602160045260246000fd5b9052565b602081016104438284610413565b92915050565b60006020828403121561045b57600080fd5b81356006811061046a57600080fd5b9392505050565b60006020828403121561048357600080fd5b81356001600160a01b038116811461046a57600080fd5b6000600182016104ba57634e487b7160e01b600052601160045260246000fd5b5060010190565b6001600160a01b03831681526040810161046a6020830184610413565b6000602082840312156104f057600080fd5b505191905056fea26469706673582212200ba7be38c4d4185f3957e527530c1040353d4e38c249a40dcc7ace40bfb7cb6964736f6c634300081c0033",
    "linkReferences": {}
  },
  "methodIdentifiers": {
    "_loadDataFromL1(address)": "edab90d0",
    "canVote(uint8)": "488a571c",
    "loadL1Storage()": "d3a824bd",
    "memberIDToVotes(uint8)": "656eb7f4",
    "tokenIDToVotedMemberID(uint256)": "3961f200",
    "vote(uint8)": "b3f98adc"
  },
  "id": 39
}