{"abi":[{"type":"constructor","inputs":[{"name":"_loadL1StorageAddress","type":"address","internalType":"address"}],"stateMutability":"nonpayable"},{"type":"function","name":"_loadDataFromL1","inputs":[{"name":"_address","type":"address","internalType":"address"}],"outputs":[{"name":"","type":"uint256","internalType":"uint256"}],"stateMutability":"view"},{"type":"function","name":"canVote","inputs":[{"name":"_teamMemberId","type":"uint8","internalType":"enum Vote.TeamMemberID"}],"outputs":[{"name":"","type":"bool","internalType":"bool"}],"stateMutability":"nonpayable"},{"type":"function","name":"hasVoted","inputs":[{"name":"","type":"uint256","internalType":"uint256"}],"outputs":[{"name":"","type":"uint8","internalType":"enum Vote.TeamMemberID"}],"stateMutability":"view"},{"type":"function","name":"loadL1Storage","inputs":[],"outputs":[{"name":"","type":"address","internalType":"contract LoadL1Storage"}],"stateMutability":"view"},{"type":"function","name":"vote","inputs":[{"name":"_teamMemberId","type":"uint8","internalType":"enum Vote.TeamMemberID"}],"outputs":[],"stateMutability":"nonpayable"},{"type":"function","name":"votes","inputs":[{"name":"","type":"uint8","internalType":"enum Vote.TeamMemberID"}],"outputs":[{"name":"","type":"uint256","internalType":"uint256"}],"stateMutability":"view"},{"type":"event","name":"VoteCast","inputs":[{"name":"voter","type":"address","indexed":false,"internalType":"address"},{"name":"teamMemberId","type":"uint8","indexed":false,"internalType":"enum Vote.TeamMemberID"}],"anonymous":false}],"bytecode":{"object":"0x6080604052348015600f57600080fd5b506040516105af3803806105af833981016040819052602c916050565b600080546001600160a01b0319166001600160a01b0392909216919091179055607e565b600060208284031215606157600080fd5b81516001600160a01b0381168114607757600080fd5b9392505050565b6105228061008d6000396000f3fe608060405234801561001057600080fd5b50600436106100625760003560e01c8063488a571c14610067578063b3f98adc1461008f578063c1b43357146100a4578063d3a824bd146100d2578063ecca031f146100fd578063edab90d01461012d575b600080fd5b61007a6100753660046103d9565b610140565b60405190151581526020015b60405180910390f35b6100a261009d3660046103d9565b6101b9565b005b6100c46100b23660046103d9565b60016020526000908152604090205481565b604051908152602001610086565b6000546100e5906001600160a01b031681565b6040516001600160a01b039091168152602001610086565b61012061010b366004610401565b60026020526000908152604090205460ff1681565b6040516100869190610452565b6100c461013b366004610466565b610293565b60008061014c33610293565b90506000808281526002602052604090205460ff1660058111156101725761017261041a565b036101b0576000818152600260205260409020805484919060ff191660018360058111156101a2576101a261041a565b021790555060019392505050565b50600092915050565b6101c281610140565b61020c5760405162461bcd60e51b8152602060048201526016602482015275165bdd481a185d9948185b1c9958591e481d9bdd195960521b60448201526064015b60405180910390fd5b600160008260058111156102225761022261041a565b60058111156102335761023361041a565b815260200190815260200160002060008154809291906102529061048f565b91905055507fefffa0c001f10a86d936643c098510eba656ffab1d0c5165822b79d4c895e88f33826040516102889291906104b6565b60405180910390a150565b600080546040516305a92fdb60e11b8152600360048201526001600160a01b03848116602483015283921690630b525fb690604401602060405180830381865afa1580156102e5573d6000803e3d6000fd5b505050506040513d601f19601f8201168201806040525081019061030991906104d3565b90508060011461035b5760405162461bcd60e51b815260206004820152601a60248201527f596f7520646f6e2774206861766520616e792062616c616e63650000000000006044820152606401610203565b600080546040516305a92fdb60e11b8152600660048201526001600160a01b03868116602483015290911690630b525fb690604401602060405180830381865afa1580156103ad573d6000803e3d6000fd5b505050506040513d601f19601f820116820180604052508101906103d191906104d3565b949350505050565b6000602082840312156103eb57600080fd5b8135600681106103fa57600080fd5b9392505050565b60006020828403121561041357600080fd5b5035919050565b634e487b7160e01b600052602160045260246000fd5b6006811061044e57634e487b7160e01b600052602160045260246000fd5b9052565b602081016104608284610430565b92915050565b60006020828403121561047857600080fd5b81356001600160a01b03811681146103fa57600080fd5b6000600182016104af57634e487b7160e01b600052601160045260246000fd5b5060010190565b6001600160a01b0383168152604081016103fa6020830184610430565b6000602082840312156104e557600080fd5b505191905056fea264697066735822122057596c8a3438d90efebd2dfdaf04dcf7c6dd0b3a7153662dcd95b2b00ef2799964736f6c634300081c0033","linkReferences":{}},"methodIdentifiers":{"_loadDataFromL1(address)":"edab90d0","canVote(uint8)":"488a571c","hasVoted(uint256)":"ecca031f","loadL1Storage()":"d3a824bd","vote(uint8)":"b3f98adc","votes(uint8)":"c1b43357"},"id":18}